:020000040000FA
:100000000C9461000C947E000C947E000C947E0095
:100010000C947E000C947E000C947E000C947E0068
:100020000C947E000C947E000C947E000C947E0058
:100030000C947E000C947E000C947E000C947E0048
:100040000C94A4010C947E000C947E000C947E0011
:100050000C947E000C947E000C947E000C947E0028
:100060000C947E000C947E00000000002400270009
:100070002A0000000000250028002B0000000000DE
:1000800023002600290004040404040404040202DA
:100090000202020203030303030301020408102007
:1000A0004080010204081020010204081020000012
:1000B0000008000201000003040700000000000027
:1000C000000011241FBECFEFD8E0DEBFCDBF11E08E
:1000D000A0E0B1E0EAEBF9E002C005900D92A43097
:1000E000B107D9F721E0A4E0B1E001C01D92A53924
:1000F000B207E1F70E94EE010C94DB040C940000BF
:10010000833081F028F4813099F08230A9F008958D
:100110008730A9F08830C9F08430B1F48091800034
:100120008F7D03C0809180008F7780938000089539
:1001300084B58F7784BD089584B58F7DFBCF809182
:10014000B0008F778093B00008958091B0008F7DCC
:10015000F9CFCF93DF93282F30E0F901E255FF4F1D
:100160008491F901E656FF4FD491F901EA57FF4F08
:10017000C491CC23A1F081110E948000EC2FF0E00B
:10018000EE0FFF1FE458FF4FA591B491EC91ED23C2
:1001900081E090E009F480E0DF91CF91089580E064
:1001A00090E0FACF1F93CF93DF93282F30E0F9012F
:1001B000E255FF4F8491F901E656FF4FD491F901C2
:1001C000EA57FF4FC491CC23A9F0162F81110E944A
:1001D0008000EC2FF0E0EE0FFF1FEE58FF4FA591CF
:1001E000B4918FB7F894EC91111108C0D095DE232B
:1001F000DC938FBFDF91CF911F910895DE2BF8CF55
:10020000CF93DF9390E0FC01E656FF4F24918A578D
:100210009F4FFC0184918823D1F090E0880F991FB3
:10022000FC01E859FF4FA591B491FC01EE58FF4F36
:10023000C591D49161110EC09FB7F8948C91E22FB3
:10024000E0958E238C932881E223E8839FBFDF9182
:10025000CF9108958FB7F894EC91E22BEC938FBF78
:10026000F6CF3FB7F8948091910190919201A091BF
:100270009301B091940126B5A89B05C02F3F19F0BA
:100280000196A11DB11D3FBFBA2FA92F982F882716
:10029000BC01CD01620F711D811D911D42E0660FF1
:1002A000771F881F991F4A95D1F708958F929F92C3
:1002B000AF92BF92CF92DF92EF92FF924B015C011F
:1002C0000E9431016B017C010E9431016C197D0992
:1002D0008E099F09683E734081059105A8F321E0CE
:1002E000821A9108A108B10888EEC80E83E0D81ED2
:1002F000E11CF11C81149104A104B10429F7FF90C1
:10030000EF90DF90CF90BF90AF909F908F90089527
:10031000CF9310920201C2E060E08C2F0E94D200C5
:10032000CF5FCE30C9F760E08EE00E94D20060E07F
:100330008FE00E94D20060E080E10E94D20060E085
:1003400081E1CF910C94D2001F920F920FB60F92C1
:1003500011242F933F938F939F93AF93BF938091DB
:100360008D0190918E01A0918F01B09190013091FB
:100370008C0123E0230F2D3758F50196A11DB11DE7
:1003800020938C0180938D0190938E01A0938F0117
:10039000B09390018091910190919201A09193016D
:1003A000B09194010196A11DB11D8093910190938C
:1003B0009201A0939301B0939401BF91AF919F914B
:1003C0008F913F912F910F900FBE0F901F90189516
:1003D00026E8230F0296A11DB11DD2CF789484B5D3
:1003E000826084BD84B5816084BD85B5826085BD31
:1003F00085B5816085BD80916E00816080936E00BF
:1004000010928100809181008260809381008091B0
:100410008100816080938100809180008160809361
:1004200080008091B10084608093B1008091B00021
:1004300081608093B00080917A00846080937A001C
:1004400080917A00826080937A0080917A00816046
:1004500080937A0080917A00806880937A0010926D
:10046000C10060E082E10E94000160E083E10E943F
:10047000000160E081E00E94000160E080E00E94F5
:10048000000161E082E00E94000161E083E00E94DF
:10049000000161E084E00E94000161E085E00E94CB
:1004A000000161E086E00E94000161E087E00E94B7
:1004B000000161E088E00E94000161E089E00E94A3
:1004C000000161E08AE00E94000161E08BE00E948F
:1004D000000161E08CE00E94000161E08DE00E947B
:1004E000000161E08EE00E94000161E08FE00E9467
:1004F000000161E080E10E94000161E081E10E9471
:10050000000161E082E00E94D20061E083E00E948D
:10051000D20061E084E00E94D20061E085E00E94A8
:10052000D20061E086E00E94D20061E087E00E9494
:10053000D20061E088E00E94D20061E089E00E9480
:10054000D20060E08AE00E94D20060E08BE00E946E
:10055000D20060E08CE00E94D20060E08DE00E945A
:10056000D20060E08EE00E94D20060E08FE00E9446
:10057000D20060E080E10E94D20060E081E10E9450
:10058000D2006EE571E080E090E00E94560184E0C8
:1005900090E090938B0180938A01909389018093DE
:1005A000880181E080930101809300018093020122
:1005B000CC24C394D12CF0E04F2EF0E05F2EA4E0C9
:1005C0008A2E912CB5E0AB2EB12C772473948091B8
:1005D0000201882309F4E0C1C8E0D1E0FE011182E4
:1005E000108213821282158214821782168211865B
:1005F00010861386128615861486178616867096C0
:1006000081E0E838F80759F782E10E94A9000197D4
:1006100061F48091060190910701853091052CF4D9
:100620000196909307018093060183E10E94A9003F
:10063000019759F48091060190910701009729F0E4
:100640000197909307018093060181E00E94A90021
:10065000019761F480910401909105018530910525
:100660002CF40196909305018093040180E00E9490
:10067000A900019759F48091040190910501009718
:1006800029F00197909305018093040120910601C0
:1006900030910701B9016E5F7F4F40910401509185
:1006A0000501FA01329690E080E0821793070CF47E
:1006B000ABC0681779070CF4A7C0D982C882841729
:1006C00095070CF4A4C0E817F9070CF4A0C0DF8666
:1006D000CE86019660968830910539F72091880181
:1006E0003091890180918A0190918B01211531050A
:1006F00009F090C0FC0174E0EE0FFF1F7A95E1F75E
:10070000E85FFE4F408151814130510511F4109254
:10071000000140910101009709F091C04111109230
:10072000010140910001442309F492C02150310994
:100730003093890120938801C0918801D09189016B
:10074000209709F088C01092000120910101222316
:1007500009F488C0019790938B0180938A010091DE
:100760008A0110918B01209709F07EC0F80154E0B6
:10077000EE0FFF1F5A95E1F7E85FFE4F80819181F0
:10078000892B11F40E94880123E0CC0FDD1F2A95EC
:10079000E1F7C00FD11FCC0FDD1FC85FDE4FD9823C
:1007A000C882F12CE12C87010F5F1F4F013011052A
:1007B00009F069C060E082E00E94D20061E083E05D
:1007C0000E94D2000330110509F069C060E084E0A6
:1007D0000E94D20061E085E00E94D2000530110540
:1007E00009F069C060E086E00E94D20061E087E025
:1007F0000E94D2000730110509F069C060E088E06E
:100800000E94D20061E06CC01982188258CF1F8606
:100810001E865FCF2730310509F07BCFFC0164E0F5
:10082000EE0FFF1F6A95E1F7E85FFE4F468557859B
:100830004130510509F06DCF709200016ACF8730C9
:10084000910509F06ECF41116CCF7092010169CF13
:100850002F5F3F4F6DCFC730D10509F076CF709233
:10086000000173CF019677CFC730D10509F08CCF47
:10087000F80144E0EE0FFF1F4A95E1F7E85FFE4FF5
:10088000868597857DCF61E082E00E94D2000230AC
:10089000110509F093CF60E083E00E94D20061E08F
:1008A00084E00E94D2000430110509F093CF60E08B
:1008B00085E00E94D20061E086E00E94D20006300E
:1008C000110509F093CF60E087E00E94D20061E05B
:1008D00088E00E94D20060E00830110509F092CF54
:1008E00089E00E94D200D0E0C0E093E0EE0CFF1C53
:1008F0009A95E1F7F701EC0FFD1FEE0FFF1FE85F80
:10090000FE4F60802196662D8AE0C130D10521F02E
:10091000C230D10549F48BE00E94D200662D8FE0F1
:10092000C630D105B1F106C0C330D10549F48CE021
:100930000E94D200C730D10549F4662D80E129C05C
:10094000C430D10511F58DE00E94D200C830D10528
:1009500089F6662D81E10E94D20065E070E080E0BA
:1009600090E00E94560178010830110509F01BCF74
:1009700064EF71E080E090E00E9456014114510460
:1009800009F425CE0E94000022CE8EE0C530D105AC
:1009900029F60E94D200AECF90928B0180928A01FC
:1009A000B0928901A09288017092010170920001B9
:0E09B00070920201E3CFF894FFCF0101010025
:107E0000112484B714BE81FFF0D085E080938100F7
:107E100082E08093C00088E18093C10086E0809377
:107E2000C20080E18093C4008EE0C9D0259A86E02C
:107E300020E33CEF91E0309385002093840096BBD3
:107E4000B09BFECF1D9AA8958150A9F7CC24DD24C4
:107E500088248394B5E0AB2EA1E19A2EF3E0BF2EE7
:107E6000A2D0813461F49FD0082FAFD0023811F036
:107E7000013811F484E001C083E08DD089C08234E0
:107E800011F484E103C0853419F485E0A6D080C0E4
:107E9000853579F488D0E82EFF2485D0082F10E0AE
:107EA000102F00270E291F29000F111F8ED06801E7
:107EB0006FC0863521F484E090D080E0DECF843638
:107EC00009F040C070D06FD0082F6DD080E0C81688
:107ED00080E7D80618F4F601B7BEE895C0E0D1E017
:107EE00062D089930C17E1F7F0E0CF16F0E7DF06D8
:107EF00018F0F601B7BEE89568D007B600FCFDCFD4
:107F0000A601A0E0B1E02C9130E011968C91119780
:107F100090E0982F8827822B932B1296FA010C0160
:107F200087BEE89511244E5F5F4FF1E0A038BF0790
:107F300051F7F601A7BEE89507B600FCFDCF97BE46
:107F4000E89526C08437B1F42ED02DD0F82E2BD052
:107F50003CD0F601EF2C8F010F5F1F4F84911BD097
:107F6000EA94F801C1F70894C11CD11CFA94CF0C13
:107F7000D11C0EC0853739F428D08EE10CD085E9AC
:107F80000AD08FE07ACF813511F488E018D01DD067
:107F900080E101D065CF982F8091C00085FFFCCF94
:107FA0009093C60008958091C00087FFFCCF809118
:107FB000C00084FD01C0A8958091C6000895E0E648
:107FC000F0E098E1908380830895EDDF803219F02E
:107FD00088E0F5DFFFCF84E1DECF1F93182FE3DFCA
:107FE0001150E9F7F2DF1F91089580E0E8DFEE27F6
:047FF000FF270994CA
:027FFE00040479
:00000001FF
